{
  "_format": "hh-sol-artifact-1",
  "contractName": "Voting",
  "sourceName": "contracts/Voting.sol",
  "abi": [
    {
      "inputs": [
        {
          "internalType": "string[]",
          "name": "_candidates",
          "type": "string[]"
        }
      ],
      "stateMutability": "nonpayable",
      "type": "constructor"
    },
    {
      "inputs": [],
      "name": "admin",
      "outputs": [
        {
          "internalType": "address",
          "name": "",
          "type": "address"
        }
      ],
      "stateMutability": "view",
      "type": "function"
    },
    {
      "inputs": [
        {
          "internalType": "uint256",
          "name": "",
          "type": "uint256"
        }
      ],
      "name": "candidateList",
      "outputs": [
        {
          "internalType": "string",
          "name": "",
          "type": "string"
        }
      ],
      "stateMutability": "view",
      "type": "function"
    },
    {
      "inputs": [],
      "name": "getCandidates",
      "outputs": [
        {
          "internalType": "string[]",
          "name": "",
          "type": "string[]"
        }
      ],
      "stateMutability": "view",
      "type": "function"
    },
    {
      "inputs": [
        {
          "internalType": "string",
          "name": "_candidate",
          "type": "string"
        }
      ],
      "name": "getVotes",
      "outputs": [
        {
          "internalType": "uint256",
          "name": "",
          "type": "uint256"
        }
      ],
      "stateMutability": "view",
      "type": "function"
    },
    {
      "inputs": [
        {
          "internalType": "address",
          "name": "",
          "type": "address"
        }
      ],
      "name": "hasVoted",
      "outputs": [
        {
          "internalType": "bool",
          "name": "",
          "type": "bool"
        }
      ],
      "stateMutability": "view",
      "type": "function"
    },
    {
      "inputs": [
        {
          "internalType": "string",
          "name": "_candidate",
          "type": "string"
        }
      ],
      "name": "vote",
      "outputs": [],
      "stateMutability": "nonpayable",
      "type": "function"
    },
    {
      "inputs": [
        {
          "internalType": "string",
          "name": "",
          "type": "string"
        }
      ],
      "name": "votes",
      "outputs": [
        {
          "internalType": "uint256",
          "name": "",
          "type": "uint256"
        }
      ],
      "stateMutability": "view",
      "type": "function"
    }
  ],
  "bytecode": "0x608060405234801561001057600080fd5b50604051611498380380611498833981810160405281019061003291906103c4565b336000806101000a81548173ffffffffffffffffffffffffffffffffffffffff021916908373ffffffffffffffffffffffffffffffffffffffff160217905550806001908051906020019061008892919061008f565b5050610700565b8280548282559060005260206000209081019282156100d7579160200282015b828111156100d65782518290816100c6919061062e565b50916020019190600101906100af565b5b5090506100e491906100e8565b5090565b5b8082111561010857600081816100ff919061010c565b506001016100e9565b5090565b50805461011890610447565b6000825580601f1061012a5750610149565b601f016020900490600052602060002090810190610148919061014c565b5b50565b5b8082111561016557600081600090555060010161014d565b5090565b6000604051905090565b600080fd5b600080fd5b600080fd5b6000601f19601f8301169050919050565b7f4e487b7100000000000000000000000000000000000000000000000000000000600052604160045260246000fd5b6101cb82610182565b810181811067ffffffffffffffff821117156101ea576101e9610193565b5b80604052505050565b60006101fd610169565b905061020982826101c2565b919050565b600067ffffffffffffffff82111561022957610228610193565b5b602082029050602081019050919050565b600080fd5b600080fd5b600067ffffffffffffffff82111561025f5761025e610193565b5b61026882610182565b9050602081019050919050565b60005b83811015610293578082015181840152602081019050610278565b60008484015250505050565b60006102b26102ad84610244565b6101f3565b9050828152602081018484840111156102ce576102cd61023f565b5b6102d9848285610275565b509392505050565b600082601f8301126102f6576102f561017d565b5b815161030684826020860161029f565b91505092915050565b600061032261031d8461020e565b6101f3565b905080838252602082019050602084028301858111156103455761034461023a565b5b835b8181101561038c57805167ffffffffffffffff81111561036a5761036961017d565b5b80860161037789826102e1565b85526020850194505050602081019050610347565b5050509392505050565b600082601f8301126103ab576103aa61017d565b5b81516103bb84826020860161030f565b91505092915050565b6000602082840312156103da576103d9610173565b5b600082015167ffffffffffffffff8111156103f8576103f7610178565b5b61040484828501610396565b91505092915050565b600081519050919050565b7f4e487b7100000000000000000000000000000000000000000000000000000000600052602260045260246000fd5b6000600282049050600182168061045f57607f821691505b60208210810361047257610471610418565b5b50919050565b60008190508160005260206000209050919050565b60006020601f8301049050919050565b600082821b905092915050565b6000600883026104da7fffffffffffffffffffffffffffffffffffffffffffffffffffffffffffffffff8261049d565b6104e4868361049d565b95508019841693508086168417925050509392505050565b6000819050919050565b6000819050919050565b600061052b610526610521846104fc565b610506565b6104fc565b9050919050565b6000819050919050565b61054583610510565b61055961055182610532565b8484546104aa565b825550505050565b600090565b61056e610561565b61057981848461053c565b505050565b5b8181101561059d57610592600082610566565b60018101905061057f565b5050565b601f8211156105e2576105b381610478565b6105bc8461048d565b810160208510156105cb578190505b6105df6105d78561048d565b83018261057e565b50505b505050565b600082821c905092915050565b6000610605600019846008026105e7565b1980831691505092915050565b600061061e83836105f4565b9150826002028217905092915050565b6106378261040d565b67ffffffffffffffff8111156106505761064f610193565b5b61065a8254610447565b6106658282856105a1565b600060209050601f8311600181146106985760008415610686578287015190505b6106908582610612565b8655506106f8565b601f1984166106a686610478565b60005b828110156106ce578489015182556001820191506020850194506020810190506106a9565b868310156106eb57848901516106e7601f8916826105f4565b8355505b6001600288020188555050505b505050505050565b610d898061070f6000396000f3fe608060405234801561001057600080fd5b506004361061007d5760003560e01c8063b13c744b1161005b578063b13c744b14610100578063b99ef1fa14610130578063f851a44014610160578063fc36e15b1461017e5761007d565b806306a49fce1461008257806309eef43e146100a0578063805265e5146100d0575b600080fd5b61008a61019a565b60405161009791906106d0565b60405180910390f35b6100ba60048036038101906100b59190610764565b610273565b6040516100c791906107ac565b60405180910390f35b6100ea60048036038101906100e591906108fc565b610293565b6040516100f7919061095e565b60405180910390f35b61011a600480360381019061011591906109a5565b6102bb565b6040516101279190610a1c565b60405180910390f35b61014a600480360381019061014591906108fc565b610367565b604051610157919061095e565b60405180910390f35b610168610395565b6040516101759190610a4d565b60405180910390f35b610198600480360381019061019391906108fc565b6103b9565b005b60606001805480602002602001604051908101604052809291908181526020016000905b8282101561026a5783829060005260206000200180546101dd90610a97565b80601f016020809104026020016040519081016040528092919081815260200182805461020990610a97565b80156102565780601f1061022b57610100808354040283529160200191610256565b820191906000526020600020905b81548152906001019060200180831161023957829003601f168201915b5050505050815260200190600101906101be565b50505050905090565b60036020528060005260406000206000915054906101000a900460ff1681565b60006002826040516102a59190610b04565b9081526020016040518091039020549050919050565b600181815481106102cb57600080fd5b9060005260206000200160009150905080546102e690610a97565b80601f016020809104026020016040519081016040528092919081815260200182805461031290610a97565b801561035f5780601f106103345761010080835404028352916020019161035f565b820191906000526020600020905b81548152906001019060200180831161034257829003601f168201915b505050505081565b6002818051602081018201805184825260208301602085012081835280955050505050506000915090505481565b60008054906101000a900473ffffffffffffffffffffffffffffffffffffffff1681565b600360003373ffffffffffffffffffffffffffffffffffffffff1673ffffffffffffffffffffffffffffffffffffffff16815260200190815260200160002060009054906101000a900460ff1615610446576040517f08c379a000000000000000000000000000000000000000000000000000000000815260040161043d90610b67565b60405180910390fd5b6000805b6001805490508110156104ad5782805190602001206001828154811061047357610472610b87565b5b9060005260206000200160405161048a9190610c59565b6040518091039020036104a057600191506104ad565b808060010191505061044a565b50806104ee576040517f08c379a00000000000000000000000000000000000000000000000000000000081526004016104e590610cbc565b60405180910390fd5b6002826040516104fe9190610b04565b9081526020016040518091039020600081548092919061051d90610d0b565b91905055506001600360003373ffffffffffffffffffffffffffffffffffffffff1673ffffffffffffffffffffffffffffffffffffffff16815260200190815260200160002060006101000a81548160ff0219169083151502179055505050565b600081519050919050565b600082825260208201905092915050565b6000819050602082019050919050565b600081519050919050565b600082825260208201905092915050565b60005b838110156105e45780820151818401526020810190506105c9565b60008484015250505050565b6000601f19601f8301169050919050565b600061060c826105aa565b61061681856105b5565b93506106268185602086016105c6565b61062f816105f0565b840191505092915050565b60006106468383610601565b905092915050565b6000602082019050919050565b60006106668261057e565b6106708185610589565b9350836020820285016106828561059a565b8060005b858110156106be578484038952815161069f858261063a565b94506106aa8361064e565b925060208a01995050600181019050610686565b50829750879550505050505092915050565b600060208201905081810360008301526106ea818461065b565b905092915050565b6000604051905090565b600080fd5b600080fd5b600073ffffffffffffffffffffffffffffffffffffffff82169050919050565b600061073182610706565b9050919050565b61074181610726565b811461074c57600080fd5b50565b60008135905061075e81610738565b92915050565b60006020828403121561077a576107796106fc565b5b60006107888482850161074f565b91505092915050565b60008115159050919050565b6107a681610791565b82525050565b60006020820190506107c1600083018461079d565b92915050565b600080fd5b600080fd5b7f4e487b7100000000000000000000000000000000000000000000000000000000600052604160045260246000fd5b610809826105f0565b810181811067ffffffffffffffff82111715610828576108276107d1565b5b80604052505050565b600061083b6106f2565b90506108478282610800565b919050565b600067ffffffffffffffff821115610867576108666107d1565b5b610870826105f0565b9050602081019050919050565b82818337600083830152505050565b600061089f61089a8461084c565b610831565b9050828152602081018484840111156108bb576108ba6107cc565b5b6108c684828561087d565b509392505050565b600082601f8301126108e3576108e26107c7565b5b81356108f384826020860161088c565b91505092915050565b600060208284031215610912576109116106fc565b5b600082013567ffffffffffffffff8111156109305761092f610701565b5b61093c848285016108ce565b91505092915050565b6000819050919050565b61095881610945565b82525050565b6000602082019050610973600083018461094f565b92915050565b61098281610945565b811461098d57600080fd5b50565b60008135905061099f81610979565b92915050565b6000602082840312156109bb576109ba6106fc565b5b60006109c984828501610990565b91505092915050565b600082825260208201905092915050565b60006109ee826105aa565b6109f881856109d2565b9350610a088185602086016105c6565b610a11816105f0565b840191505092915050565b60006020820190508181036000830152610a3681846109e3565b905092915050565b610a4781610726565b82525050565b6000602082019050610a626000830184610a3e565b92915050565b7f4e487b7100000000000000000000000000000000000000000000000000000000600052602260045260246000fd5b60006002820490506001821680610aaf57607f821691505b602082108103610ac257610ac1610a68565b5b50919050565b600081905092915050565b6000610ade826105aa565b610ae88185610ac8565b9350610af88185602086016105c6565b80840191505092915050565b6000610b108284610ad3565b915081905092915050565b7f416c726561647920766f74656400000000000000000000000000000000000000600082015250565b6000610b51600d836109d2565b9150610b5c82610b1b565b602082019050919050565b60006020820190508181036000830152610b8081610b44565b9050919050565b7f4e487b7100000000000000000000000000000000000000000000000000000000600052603260045260246000fd5b600081905092915050565b60008190508160005260206000209050919050565b60008154610be381610a97565b610bed8186610bb6565b94506001821660008114610c085760018114610c1d57610c50565b60ff1983168652811515820286019350610c50565b610c2685610bc1565b60005b83811015610c4857815481890152600182019150602081019050610c29565b838801955050505b50505092915050565b6000610c658284610bd6565b915081905092915050565b7f496e76616c69642063616e646964617465000000000000000000000000000000600082015250565b6000610ca66011836109d2565b9150610cb182610c70565b602082019050919050565b60006020820190508181036000830152610cd581610c99565b9050919050565b7f4e487b7100000000000000000000000000000000000000000000000000000000600052601160045260246000fd5b6000610d1682610945565b91507fffffffffffffffffffffffffffffffffffffffffffffffffffffffffffffffff8203610d4857610d47610cdc565b5b60018201905091905056fea26469706673582212203e022d3132f2070e654c5c7e7da5a0becfc004a6e3b14125d2f807617dfff76264736f6c634300081c0033",
  "linkReferences": {},
  "deployedLinkReferences": {}
}